:020000040000FA
:1000000000800010D7070000C500000005080000B0
:10001000C9000000CB000000CD000000000000007F
:10002000000000000000000000000000CF00000001
:10003000D100000000000000D30000008108000093
:10004000D70000008B080000950800009F08000002
:10005000A9080000B3080000D7000000BD08000098
:10006000D7000000C7080000D7000000D10800003A
:10007000DB080000E5080000EF080000F9080000B8
:10008000030900000F090000D7000000D70000009E
:100090001B090000D7000000D70000007109000014
:1000A000D7000000D70000007B0900008509000090
:1000B000D7000000D7000000D7000000D7000000E4
:1000C00005480047FEE7FEE7FEE7FEE7FEE7FEE73E
:1000D000FEE7FEE7FEE7FEE7010C00000302021266
:1000E00013434B4098B20206120F504002034240A5
:1000F00090B20206120D520050407047FFB583B017
:1001000004460D46F948019001210198FFF7E6FFEA
:10011000019029460198FFF7E1FF0190069801122E
:100120000198FFF7DBFF019006990198FFF7D6FFD2
:100130000190002002900AE0029A0598815C0198E3
:10014000FFF7CCFF01900298401CC0B202900699C4
:1001500002988842F0DB7E210198FFF7BFFF0190F3
:100160000198C2B206120092236828461F46334601
:10017000069A0599B84707B0F0BD10B50346980731
:10018000800F01D0012010BD002403E0185901C1E7
:10019000201DC4B29442F9DB0020F4E730B50346D9
:1001A0009807800F01D0012030BD9805800D07D140
:1001B000CF4D286228464360CE4828604A20E86038
:1001C00000240AE01819CA4D686001C9A860C9482E
:1001D00028604C20E860201D84B29442F2DB0020AD
:1001E000E2E7F8B504460D4600200090287857282D
:1001F00026D168780602A9780E43B007800F07D190
:1002000003208002864203D30F200003864206D3D8
:100210006A46B12120460123FFF770FFA8E01022B3
:10022000291D3046FFF7BAFF00906B46187800286A
:10023000F4D16A46B12120460123FFF75FFF97E022
:100240002878582827D168780602A9780E43B00785
:10025000800F07D103208002864203D30F200003C2
:10026000864206D36A46B12120460123FFF746FFA6
:100270007EE001229202291D3046FFF78FFF009099
:100280006B461878002873D16A46B12120460123B5
:10029000FFF734FF6CE02878002867D16878B12830
:1002A0000AD004DC032849D008285BD12FE0B3280A
:1002B00012D0B62856D14EE028790A2809D168799B
:1002C000102806D169786A4620460123FFF716FFF9
:1002D00001E00E20009048E02879060269790E437B
:1002E000B007800F02D0FF2000900FE01022291DE0
:1002F0003046FFF742FF00906B461878002805D182
:1003000069782A1D20461023FFF7F8FE2DE06A4683
:10031000082120460123FFF7F1FE7748774908605E
:1003200008468068802108437449886000BF73488C
:1003300040680028FBD100F02AFB16E02879F0285D
:1003400006D16F4AF02120460423FFF7D7FE01E0D3
:100350001820009009E06A4AB62120460423FFF7DE
:10036000CDFE02E01820009000BF01E018200090B0
:100370006B461878002805D06A46FF2120460123E5
:10038000FFF7BCFEF8BDF8B504460D460126002770
:1003900000BF60688047BB28FBD1574857490860B9
:1003A00008468068802108435449886000BFA068DF
:1003B000804700280BD0E0680078287028785728FC
:1003C00000D12FE02878582800D14AE004E04B48BB
:1003D00040680028EBD100BF00BFA068804700281C
:1003E0001AD0E0680078A855434844490860022EB6
:1003F00003D1A85D0002C7B20CE0032E04D1A85DB2
:10040000801D3843C7B205E0032E03DDBE4201D193
:100410000020F8BD701C86B2384840680028DCD146
:10042000FF20F6E700BFA0688047002813D0E068EF
:100430000078A855304831490860022E05D10021C6
:10044000701C80B20646295403E0162E01D100200C
:10045000DFE7701C86B2294840680028E3D1FF20FE
:10046000D7E700BFA0688047002814D0E068007874
:10047000A855214821490860022E05D10021701C91
:1004800080B20646295404E01E48864201D100206D
:10049000BFE7701C86B2194840680028E2D1FF20EF
:1004A000B7E7FEB504460D46002600270F4800902A
:1004B00029462046FFF767FF0646002E01D030464A
:1004C000FEBD287800281FD1A8780002E9780843EB
:1004D000401D80B20190A8780102E8780143281DF0
:1004E000405C7E2844D0FF20EAE70000FFFF0000C8
:1004F000000002405A5A5A5A004C1D000020005079
:10050000FC0B0000060400002878572813D11520A2
:100510000190287D7E2801D0FF20D1E706E0E95D2B
:100520000098FFF7DBFD0090781C87B2032FF6DB05
:10053000781C87B21CE02878582817D1FA48019017
:10054000281D01218902401800787E2801D0FF2053
:10055000B6E706E0E95D0098FFF7C0FD0090781C63
:1005600087B2032FF6DB781C87B201E01820A7E7DB
:1005700006E0E95D0098FFF7B1FD0090781C87B2B6
:1005800001988742F5DBE85D0102781C285C014395
:100590000098814201D0FF2092E7002090E7E348D5
:1005A00080691021084202D00020C0437047DF4814
:1005B0000068C0B2FAE7DD4880691021084201D026
:1005C000002070470120FCE770B5049C00BFD74DA8
:1005D000AD6920263542FAD1BB25D44E356000BF27
:1005E000D24DAD6920263542FAD10125CF4E356076
:1005F00000BFCE4DAD6920263542FAD1CB4D2860E3
:1006000000BFCA4DAD6920263542FAD11512C74E3A
:10061000356000BFC54DAD6920263542FAD1C34DC6
:100620002A6009E000BFC14DAD6920263542FAD1EC
:100630000D78BE4E3560491C1546561EF2B2002D8F
:10064000F0DC00BFB94DAD6920263542FAD17E25D8
:10065000B64E356000BFB54DAD6920263542FAD1A2
:10066000B24D2B6000BFB14DAD6920263542FAD1A5
:10067000AE4D2C6070BDAE48006A03210843AC4902
:1006800008620020A9490863C8620A2048621B204A
:1006900088627020C862A748086300BF0521012056
:1006A0008840A549086000BF70470020A3498860C2
:1006B000401EC86043208860704700B5FFB0FFB09F
:1006C00089B0002000909E489B490860FFF7EDFF2D
:1006D000FFF7D1FF9B48FFAB18619B4898619B488F
:1006E00058619248D86116E001A9FFA81030FFF7C1
:1006F000D8FE00906B461878002807D06A46FF2184
:10070000FFA810300123FFF7F9FC04E001A9FFA8BE
:100710001030FFF766FDE7E738B5894C0325AD02D9
:100720001AE0286800906B4619782046FFF7D6FC3F
:1007300004466B4659782046FFF7D0FC04466B46CA
:1007400099782046FFF7CAFC04466B46D9782046C4
:10075000FFF7C4FC04462D1D7D488542E1D32046A9
:1007600038BD70B5FFB0FFB082B03B26B6020024A2
:1007700006E032682046641C800069460A50361D37
:1007800073488642F5D3FFF7C7FF85B2FF95002077
:10079000704908623B20800248606F4808604A2028
:1007A000C86000243B26B6020DE06A484660204639
:1007B000641C80006946085866498860664808607D
:1007C0004C20C860361D0F2000038642EDD37FB059
:1007D0007FB002B070BD10B55D483C38C06B5F495A
:1007E000884202D1FFF7BDFF09E0FFF795FF0446FD
:1007F00057483C38C16BA14201D0FFF75EFF584813
:10080000804710BD10B552483C38C06B53498842F0
:1008100014D000204F4908623B20800248604E48B7
:1008200008604A20C8604A4848604E4888604A4884
:1008300008604C20C86000F0AAF820E000201DE00D
:100840003B494039C96B40229143394A403AD16310
:10085000002001E0411C88B243498842FADB344958
:100860004039C96B40225140314A403AD16300209F
:1008700001E0411C88B23C498842FADBE0E710BD48
:1008800010B53A49C86B804710BD10B53749486C60
:10089000804710BD10B53549886C804710BD10B534
:1008A0003249C86C804710BD10B53049086D80478B
:1008B00010BD10B52D49486D804710BD10B52B49AE
:1008C000C86D804710BD10B52849486E804710BDDF
:1008D00010B52649C86E804710BD10B52349086F72
:1008E000804710BD10B52149486F804710BD10B535
:1008F0001E49886F804710BD10B51C49C86F8047DE
:1009000010BD10B5194980310868804710BD10B579
:10091000164980314868804710BD10B513498031B1
:100920000869804710BD00000504000000800050E9
:10093000004400500103000080E100E0002000506E
:10094000FFFF0000C9050000B70500009F0500007B
:10095000FCEF0000000002405A5A5A5A005AA55AA9
:10096000010C0000AAAAAAAAFF1F00000040001064
:1009700010B50A49C869804710BD10B50749886A93
:10098000804710BD10B50549C86A804710BD0448AE
:100990000449C860BFF3408F00BFFEE780400010ED
:1009A0000400FA0500ED00E0FFFFFFFFFFFFFFFF7F
:1009B000FFFFFFFFFFFFFFFFFFFFFFFFFFFFFFFF47
:1009C000FFFFFFFFFFFFFFFFFFFFFFFFFFFFFFFF37
:1009D000FFFFFFFFFFFFFFFFFFFFFFFFFFFFFFFF27
:1009E000FFFFFFFFFFFFFFFFFFFFFFFFFFFFFFFF17
:100BF000FFFFFFFFFFFFFFFFFFFFFFFF105AA55A98
:100C00000348854600F06AFD00480047591000007F
:100C10000080001010B500BF4B200002FF49884241
:100C200000D90DE0FE48FF4948610F210020C04374
:100C300000F0BCF90020FB4988610720086100BF73
:100C400010BD00210EE00801F74A1058002807D116
:100C5000080180180079002802D108018018704727
:100C6000481CC1B20829EEDB0020F8E713B5009854
:100C700000281CD072B6FFF7E4FF0446002C14D005
:100C80000199009861602060E8480068002804D15C
:100C9000E7480460E548046007E0E4480068E06075
:100CA000E24800688460E148046062B600BF1CBD91
:100CB000C169002905D18169002902D1DD4A11608D
:100CC0001AE0C169002907D1DA4A8169116000215F
:100CD0001268D16181610FE08169002903D1C26985
:100CE0009161C16108E0C269816991618269C169EC
:100CF000D1610021C1618161704710B5CD480068A4
:100D0000002823D0CB480068CBA206CAC26081600D
:100D1000C84804680FE02046FFF7CAFF2069002892
:100D200005D061692069FFF7A1FF00202061002044
:100D30002070C0480468002C07D0BFA0E368A268F8
:100D400003C8594050400843E5D000BF10BD10B55E
:100D5000BBA00CC8BC484168006880185941BA4A19
:100D600003C2B448006800280BD0B7484368026843
:100D7000B0480068C1688068121A8B4101D3FFF740
:100D8000BCFF10BD30B50446AA480068002802D157
:100D9000A84804602AE0A748056823E0E368A26841
:100DA000E968A868121A8B410ED2E869002806D0BB
:100DB000A561E869E061E8698461EC6103E0A5612F
:100DC000EC619C4804600FE0E368A268E968A868E9
:100DD000121A8B4105D3A869002802D1AC61E561E4
:100DE00002E0AD69002DD9D100BF00BF30BD70B5A4
:100DF000044690480068002815D08E4805680FE02A
:100E0000AE692869A0420AD12846FFF751FF0020A9
:100E1000286189A103C9E960A860002028703546CF
:100E2000002DEDD100BF70BDF7B582B01446874EDE
:100E300000251DE03078002817D1012030702746AA
:100E40000020009401908048436802680199A0182E
:100E50005941F160B06003990298716130610020DE
:100E6000F061B061304605B0F0BD2036681CC5B2F7
:100E7000072DDFDB0020F6E737B51446224601993F
:100E80000098FFF7D1FF0546002D00D13EBD284652
:100E9000FFF778FFFAE713B5009800281CD072B668
:100EA000FFF7CFFE0446002C14D001990098616032
:100EB00020605F480068002804D15D4804605B48FA
:100EC000046007E05A480068C46059480068A060A0
:100ED0005748046062B600BF1CBDC168002907D135
:100EE0008168002904D1524A1160504A11601FE004
:100EF000C168002907D14E4A81681160002112683B
:100F0000D160816014E08168002907D1474AC16837
:100F10001160002112689160C16009E0C2688168B7
:100F200091600021C1608268C168D1600021816048
:100F3000704770B504463E480068002810D03C4811
:100F400005680AE0AE682868A04205D12846FFF788
:100F5000C4FF0020286028713546002DF2D100BF63
:100F600070BD10B5044672B62046FFF7E2FF20467A
:100F7000FFF73DFF62B610BD30BF704710B514E0FB
:100F80002B48006800280ED072B629480468204615
:100F9000FFF7A3FF62B62268104661689047002001
:100FA0002060207101E0FFF7E7FFE9E710B50028B6
:100FB00019DA274A03071B0F083B9B089B00D258EE
:100FC0008307DC0EFF23A3409A430B071B0E840705
:100FD000E40EA3401A431E4B0407240F083CA40848
:100FE000A4001A5118E01B4A03231B02D2188308DD
:100FF0009B00D3588207D40EFF22A24093430A07D6
:10100000120E8407E40EA2401343124A0324240262
:1010100012198408A400135110BD0000FFFFFF0047
:10102000FF4A000000E000E0D8430010CC40001070
:10103000D0400010C8400010000000000000000078
:101040000100000000000000C0400010F842001045
:101050001CED00E000E100E010B505F02EFE06F00A
:101060005FF907F018FB03F094FF0AF08BFFFFF71E
:10107000D1FD00F0F3FAFFF781FF002010BDFFFF64
:10108000024608120B02184381B20846504001463E
:101090000806000F41400803484081B20806000DD1
:1010A0004000414008467047F0B504460D461646DC
:1010B000002706E0E05D3146FFF7E2FF0646781CB8
:1010C00087B2AF42F6DB3046F0BD70B504460D4640
:1010D000A81E81B2104A2046FFF7E6FF0646F0B28E
:1010E000691E615C884204D13012A91E615C88428D
:1010F00001D0012070BD0020FCE770B504460D460C
:10110000054A29462046FFF7CFFF0646681C2654AD
:101110003012605570BD0000FFFF00002B206049B9
:101120008860032088625F4988606A20886270470F
:10113000F0B587B004465C490D68496800BF2F468A
:101140000020029503905848436802680399501B99
:101150008B4101930090002003460494059001996F
:101160000098001B9941EAD307B0F0BD10B54F4875
:101170000068002802D04D48006880470020C04326
:101180004749C86010BD10B50446484800680028AB
:1011900001D0002010BD012000F07BF8434804601E
:1011A0003F488068802108433D4988600120F1E77D
:1011B0003C48806A802108433A4988627047394830
:1011C000806A8021884337498862704735490862C0
:1011D000704710B5044636480068002801D000204A
:1011E00010BD042000F055F832482060324860609D
:1011F0003248A0602E49E06808600120F0E7002036
:101200002B4908600120704700B50246002A28D00B
:101210002B480078002824D121488068294908609B
:101220001F48806A48601F48806888601D48806A3F
:10123000C8601B4880688021884319498860084637
:10124000806A802188431649886216488068802118
:10125000884314498860FFF7B2FF012018490870DD
:1012600016E0002A14D116480078002810D015483E
:1012700000680B498860134840688862114880689C
:10128000084988600F48C068886200200C490870CF
:1012900000BDC206D20E012191400B4A1160704779
:1012A0000020005000300050C040001018410010D5
:1012B00020410010B1110000BF110000CD1100004D
:1012C00024410010E846001000E100E0544AD26BCF
:1012D00052085200524BDA6309E000BF514A92694A
:1012E00020231A42FAD102784E4B1A60401C0A465B
:1012F0004B1E99B2002AF0D1494AD26B01231A43FE
:10130000474BDA637047F8B504462701394646482B
:1013100000F0A8F905463946434800F0A3F90091CA
:101320000099C801394600F09DF907467E08F80784
:10133000C00F00D0761C3B4845628662C06A3949BE
:10134000C862F8BD10B5394800F0FEF83848006AA8
:101350000321084336490862002032490863E1202E
:101360004002FFF7D0FF60202E49C862002048638A
:10137000304808631020886300BF052101208840A1
:101380002D49086000BF10BD70B5002000F0C6F800
:101390002448006885B225480088FF2805DB002026
:1013A00022490880084600F0CFF82048008800282D
:1013B00002D1BB2D00D070BD1C480088012805D18A
:1013C000042D03DD194800F0BFF8F4E71748407911
:1013D000002803D0154800F0B7F8ECE72946134879
:1013E00000F0CFF8114840790102104880790818C0
:1013F00084B20E4801882046083081420EDB0B493A
:10140000891C601D085C7E2805D1881E0188801C0F
:1014100000F0A2F802E0054800F096F8CBE70000E3
:10142000C05300500080005000F82401F84600101E
:10143000004400500103000000E100E010B5034645
:10144000002A06DD01208840401E18409040C0B2AE
:1014500010BD54421846204101248C40641E204097
:10146000C0B2F5E7FFB504460D46164600271AE060
:101470000823039A9A1AD1B2E85D039A52B2FFF791
:10148000DDFFE055F010C01B00280ADD0399083984
:101490004AB2791C685C0399FFF7D0FFE15D08430D
:1014A000E055781C87B203983018C01DC010B842B0
:1014B000DEDCFFBD10B501460022002300240AE057
:1014C0005B009200880F82188900934202D25B1C55
:1014D000D21A5B1C641C102CF2DBD803000C10BD6C
:1014E000704700200320704700B502465248026052
:1014F000FFF7F7FF002802D003280AD104E04F4885
:1015000090604F48106004E04E4890604E48106074
:1015100000BF00BF4D495068086000BD002802D0E0
:1015200003280AD104E04649434A1268116004E0E6
:101530004549414A1268116000BF00BF7047002151
:10154000817041700170704710B50446FF2103316E
:1015500020460BF012FB10BD70B504460D463C480A
:10156000C06B012108433A49C86329462046374ADF
:10157000126890473748FFF7E7FF3748FFF7DFFF6C
:1015800070BD10B50488821C11550288521C02805F
:1015900010BD70B504460D4616466278FF21033132
:1015A0004A43211D5118881C3246294600F084F810
:1015B0006178FF2003304143201D46526078401C73
:1015C0006070002060702078401C207070BD70B585
:1015D00005460C46FF200130844200DD70BD1E48E8
:1015E0000078012800DBF9E7224629461A48FFF770
:1015F000D0FF1748C06B400840001549C86300BFC2
:101600001348C06BC007C00FFAD0E7E7014608785F
:10161000002800D170478878FF23033358430B1DFF
:10162000C2188878401C8870002088700878401E96
:1016300008701046EEE700002C4100104513000032
:10164000CD12000069170000571C0000284100104F
:10165000C0530050F8460010FA47001010B506F0CD
:10166000ECFF10BD30B50B460146002020220124BE
:1016700009E00D46D5409D4205D31D469540491BC6
:101680002546954040191546521E002DF1DC30BD0F
:1016900070B500242546002801DA012440420029C3
:1016A00001DA01254942FFF7DDFFAC4200D040429C
:1016B000002C00D0494270BD03460B439B070AD162
:1016C00002E008C9121F08C0042AFAD203E00B780E
:1016D0000370491C401C521EF9D27047064C01256C
:1016E000064E05E02046E36807C82B4398471034B0
:1016F000B442F7D3FFF788FA0CCF00002CCF0000DC
:10170000B7CA7C00FF480078002800D17047FE4827
:1017100000881E2810DDFD48C06BC007C00F0BD02D
:10172000FA48C06B40218843F849C8630020F64955
:101730000880F44908700AE0F448C06B4021484032
:10174000F249C863F0480088401CEF490880DDE793
:10175000FF21B4314143EE4A1160FF21B4314143CE
:101760004908EC4A1160704710B5EB48006A400820
:101770004000E9490862E948FFF7E6FEE848FFF75C
:10178000DEFEE548006840084000E349086008467E
:1017900040684008400048600846C0684008400073
:1017A000C8600846006901210843DB490861D74841
:1017B0004030006808218843D44940310860084619
:1017C000406808218843D149403148600846C068D4
:1017D00008218843CD494031C86008460069082186
:1017E0000843CA49403108610D2000F08BFCC7480E
:1017F0004030006880210843C449403108600E2011
:1018000000F080FC042000F07DFC6420C5490862E3
:10181000662088620846806A80210843C149886240
:10182000BA48C06B80210843B849C863B748403004
:10183000006840210843B54940310860B348C06B97
:1018400040218843B149C863FFF77CFD00BFB6481B
:10185000806A80210843B4498862B448086200BFA6
:10186000B148006B0028FBD00020C043AE49C862DD
:101870000846806A80218843AB49886200BF1420F3
:10188000FFF766FF6620A8498860FF20F5300860F2
:10189000A748FFF778FC10BDA6490978002900D0B9
:1018A0007047002804D0012851D002287ED1DFE003
:1018B000954909390978002924D09449C96B8022B7
:1018C0009143924AD16300BF9749896A80221143AC
:1018D000954A91628E490968116200BF9249096B6D
:1018E0000029FBD00021C9438F4AD1621146896A81
:1018F000802291438C4A916200BF0021824A093ABA
:10190000117023E08149C96B802211437F4AD16362
:1019100000BF8549896A80221143834A91627C49CC
:101920000968116200BF8049096B0029FBD00021C2
:10193000C9437D4AD1621146896A802291437A4A1D
:10194000916200BF0121704A093A1170ABE06E4903
:1019500009390978002946D06C49C96B8022914326
:101960006A4AD16300BF7049896A802211436E4A76
:10197000916268490968116200BF6B49096B0029CF
:10198000FBD00021C943684AD1621146896A80228E
:101990009143654A916200BF5C49C96B8022114343
:1019A0005A4AD16300BF6049896A00E07AE0802228
:1019B00011435D4A916257490968116200BF5A4953
:1019C000096B0029FBD00021C943574AD162114657
:1019D000896A80229143544A916200BF01214A4A98
:1019E000093A117043E04949C96B80221143474AC3
:1019F000D16300BF4C49896A802211434A4A9162EF
:101A000044490968116200BF4749096B0029FBD0AE
:101A10000021C943444AD1621146896A8022914318
:101A2000414A916200BF3949C96B80229143374ACC
:101A3000D16300BF3C49896A802211433A4A9162CE
:101A400034490968116200BF3749096B0029FBD08E
:101A50000021C943344AD1621146896A80229143E8
:101A6000314A916200BF0021274A093A11701AE0F9
:101A700000BF2D49896A802211432B4A91622E4969
:101A8000116200BF2849096B0029FBD00021C9431E
:101A9000254AD1621146896A80229143224A916285
:101AA00000BF00E0FCE600BFFAE670B50446002582
:101AB0005EE01648C06B802188431449C86300BFAC
:101AC0001948806A80210843174988621B480862C8
:101AD00000BF1548006B0028FBD00020C04312490E
:101AE000C8620846806A802188430F49886200BF27
:101AF0000648C06B802108430449C86300BF0A48F8
:101B0000806A1DE0D7400010FA400010C04300502A
:101B1000E8400010EC40001000540050F84600105F
:101B2000FA470010003000500020005000A60E00C0
:101B300005170000D6400010E70B0000FE10000063
:101B400080210843FE498862FE48086200BFFC48C5
:101B5000006B0028FBD00020C043F949C86208464A
:101B6000806A80218843F649886200BF681C85B27C
:101B7000192D9EDB00BFF248806A80210843F0499E
:101B80008862F148086200BFED48006B0028FBD076
:101B90000020C043EA49C8620846806A8021884321
:101BA000E749886200BF21464B20C000FFF770FD67
:101BB00085B22046E10F09194C1043E0E348C06BA1
:101BC00080218843E149C86300BFDD48806A8021E5
:101BD0000843DB498862FF20B4306043086200BFDD
:101BE000D748006B0028FBD00020C043D449C8620E
:101BF0000846806A80218843D149886200BFD34863
:101C0000C06B80210843D149C86300BFCC48806ABB
:101C100080210843CA498862FF20B43060430862CB
:101C200000BFC748006B0028FBD00020C043C44958
:101C3000C8620846806A80218843C149886200BF23
:101C4000681E85B2002DB9DCC048C06B8021884376
:101C5000BE49C86370BD70B503460C4600253FE021
:101C6000BA48C06B80218843B849C86300BFB448F4
:101C7000806A80210843B2498862C020086200BFA0
:101C8000AF48006B0028FBD00020C043AC49C862BD
:101C90000846806A80218843A949886200BFAB4812
:101CA000C06B80210843A949C86300BFA448806A6B
:101CB00080210843A2498862C020086200BFA04872
:101CC000006B0028FBD00020C0439D49C862084635
:101CD000806A802188439A49886200BF681CC5B227
:101CE000282DBDDB002549E09848C06B8021884342
:101CF0009649C86396480078002803D0002094498C
:101D0000087070BD00BF8E48806A802108438C49EE
:101D100088624B204002086200BF8948006B00289F
:101D2000FBD00020C0438649C8620846806A8021F3
:101D300088438349886200BF8448C06B8021084380
:101D40008249C86300BF7E48806A802108437C497D
:101D500088624B204002086200BF7948006B00286F
:101D6000FBD00020C0437649C8620846806A8021C3
:101D700088437349886200BF681CC5B2042DB3DB79
:101D8000002504E00120FFF787FD681CC5B2192D6E
:101D9000F8DB0020FFF780FD14E06D480078002894
:101DA00003D000206A490870ABE71E785B1C002551
:101DB00006E0F007C00FFFF76FFD7610681CC5B294
:101DC000082DF6DB2046611E8CB20028E5D1604864
:101DD000007800282BD1002504E00120FFF75CFDEE
:101DE000681CC5B20A2DF8DB002504E00420FFF7CB
:101DF00053FD681CC5B2032DF8DB00BF5048806A54
:101E0000802108434E4988624B204002086200BF8F
:101E10004B48006B0028FBD00020C0434849C862F3
:101E20000846806A802188434549886200BF474848
:101E3000C06B802188434549C8630020444908702D
:101E40005FE710B54348C069012108434149C861B3
:101E50000320FFF763FB00203F4908703F480068FC
:101E60003F490968884200D910BD3D4800683B4998
:101E70000968401A3B49086008460068032803DAED
:101E8000002033490870EFE7364800681921C9017E
:101E900088420ADD32480068304908600120324932
:101EA00008703248FFF750FBDEE72E480068102824
:101EB00007DD2B4800682949086001202A4908707D
:101EC000D2E728480068072809DD2748007801285C
:101ED00005D100202449087001201D4908702248BE
:101EE0000078012873D020480078002802D002280A
:101EF0006ED117E01B480068072808DD00201C4948
:101F000008701C49087002201749087009E0002079
:101F10001649088000211548817101201249087076
:101F200098E097E00F480068072825DA1148017803
:101F3000012088400E49097808430D4908701DE0CA
:101F400000200050FE10000000DC0500C0430050DF
:101F5000D640001000540050D7400010E44000105C
:101F6000E0400010F4400010F0400010F84600106F
:101F7000FC400010D5400010401C00BF65480078B0
:101F8000401C6449087008460078082860D16248FF
:101F9000006820306049086001206049087060488E
:101FA0000088002807D15F480078BB2803D00020B4
:101FB0005D49087058E75A480088012809D15948F6
:101FC0000078042805DD5648FFF7BEFA4CE742E0EA
:101FD0003FE053484079002803D05148FFF7B4FA56
:101FE00042E7504801784E48FFF7CBFA4C48407919
:101FF00001024B48807908184C490880084600883F
:10200000FF2806DD4648FFF79FFA00204649087082
:102010001DE043480188454800880830814216DBAE
:102020003F49891C41480088401D085C7E2808D132
:10203000881E0188801CFFF78FFA00203A4908703B
:1020400005E03748FFF780FA0020374908700BE7B2
:1020500000E000BF00BF364800682F49086003E772
:1020600034484078002800D1704700BF3248806A69
:1020700080210843304988624B204002086200BF3B
:102080002D48006B0028FBD00020C0432A49C862BD
:102090000846806A802188432749886200BF012062
:1020A0002649087004E020480078002800D003E0AA
:1020B000224800780028F6D100BF00BF1E48806A81
:1020C000802108431C4988624B204002086200BFFF
:1020D0001948006B0028FBD00020C0431649C86295
:1020E0000846806A802188431349886200BFBBE7A5
:1020F0000020C0431249C8620D480068401C0C49CA
:1021000008607047C206D20E012191400D4A11604D
:1021100070470000D5400010E4400010F04000106F
:10212000F8460010FC400010D6400010F8400010A7
:10213000E0400010F441001000200050D740001093
:102140000030005000E100E0FF484078012802D153
:102150000220FD4948707047FB480078012802D1F1
:102160000220F9490870704701200521090708621B
:1021700000BFF648806A80210843F44988624B20FA
:102180000002086200BFF148006B0028FBD000206D
:10219000C043EE49C8620846806A80218843EB4903
:1021A000886200BF002005210907086200BFE748D8
:1021B000806A80210843E54988624B20000208625A
:1021C00000BFE248006B0028FBD00020C043DF497D
:1021D000C8620846806A80218843DC49886200BF63
:1021E0007047DB484088A0280ED004DC282809D09E
:1021F00050281AD107E0FF38413806D0FF3841385F
:1022000013D10AE000BF00BF00BF0F20D149887082
:10221000602048716420C87007E00720CD498870AD
:102220002C2048716420C87000BF00BF5120C949EC
:1022300008702D20487010200871042088717047A4
:10224000002006E0C449095CC44A82181174411C8C
:10225000C8B24028F6D3704700B57720BF4980390F
:10226000C870A22048710F2088710620C87107200D
:102270004873802088741820C874FF208876002056
:10228000B6496039C8710872032048720846007B5D
:1022900080210843B149603908734B2048735020AE
:1022A0008873FF20C87308740320887425208876FB
:1022B0000920C8763120A749603908740120A54952
:1022C0004039487488740B20C874B8200875E82019
:1022D000887591209F492039087409208874282026
:1022E0009C49C877FFF7ACFFFFF77BFF00BD10B537
:1022F000FFF73AFFFFF7B0FF14209649C8761A207F
:1023000000F048FE1B2000F045FE10BDF8B5044665
:102310000025002600BF4121084604F039FA00BF1D
:102320008A48806A80210843884988620F2080019A
:10233000086200BF8548006B0028FBD00020C04326
:102340008249C8620846806A802188437F49886242
:1023500000BF02207F496039087400BF7D486038A3
:10236000007C022108400228F8D0002516E0222037
:1023700078496039087400BF76486038007C0221D3
:1023800008400228F8D073486038407C80197149B1
:102390006039897C401886B2681CC5B2032DE6DB23
:1023A0006F48408AB04203DD09256D48468A0CE03B
:1023B000002507E068006A49085AB04200DA03E0E5
:1023C000681CC5B20A2DF5DB00BF68006449095AD4
:1023D000681C4000624A105A081A87B26900515AB4
:1023E000711A0A22514308463946FFF751F9074648
:1023F0000A2068435B494018C01B20800120F8BDBB
:10240000F8B504460025002600BF2D21084604F03B
:10241000BFF900BF4D48806A802108434B4988625C
:102420000F208001086200BF4848006B0028FBD0E5
:102430000020C0434549C8620846806A802188431D
:102440004249886200BF022042496039087400BFD7
:1024500040486038007C022108400228F8D000255E
:1024600016E022203B496039087400BF39486038C3
:10247000007C022108400228F8D036486038407CB1
:10248000801934496039897C401886B2681CC5B20D
:10249000032DE6DB3448C08BB04201DD0F250CE094
:1024A000002507E068003049085AB04200DA03E02E
:1024B000681CC5B2102DF5DB00BF68002A49095A17
:1024C000681C4000284A105A081A87B26900515AFD
:1024D000711A0A22514308463946FFF7D9F80746D0
:1024E0000A20684321494018C01B20800120F8BD04
:1024F000F8B504460025002600273A21084604F0D6
:1025000047F900BF1148806A802108430F4988625B
:102510000F208001086200BF0C48006B0028FBD030
:102520000020C0430949C8620846806A8021884368
:102530000649886200BF022006496039087400BF5E
:1025400004486038007C13E0FE400010002000507A
:1025500006410010E081014036CD0000808001403E
:1025600060CC00002A03000024CC000026020000FA
:10257000022108400228E3D0002512E02220FF4972
:10258000087400BFFD48007C022108400228F9D0F1
:10259000FA48407C8019F949897C401886B2681C49
:1025A000C5B2032DEADBF648C08AB04204DD19202B
:1025B000400120800020F8BDF1480088B04204DAD4
:1025C000AF20800020800020F5E7002519E068009A
:1025D000EB49085AB04212DA6800095A681C4000F8
:1025E000E74A105A081A87B26900515A711A0A222A
:1025F000514308463946FFF74BF887B203E0681CA1
:10260000C5B20C2DE3DB00BF0A206843DD4940184A
:10261000C01B20800120CEE7F0B599B04022DA49F6
:1026200009A8FFF749F800200890D44860300478E2
:10263000D6488579C679D148077CD54880790790F6
:10264000D348C0790690D248007A0590D048807A65
:102650000490CF48807B0390CD48C07F0290CC4847
:10266000203000780190CB4803F0AEFE0020C34933
:10267000603108700F20C54988710620C871EC20B0
:10268000C3498871C871EE200872BF208873BE20CC
:1026900088720A20C877BE492031087000BFBE4842
:1026A000806A80210843BC4988620F2000020862CA
:1026B00000BFB948006B0028FBD00020C043B649DA
:1026C000C8620846806A80218843B349886200BF97
:1026D00008A8FFF70DFF00280CD16B46188CAF211E
:1026E0008900884203D108A8FFF78AFE02E008A803
:1026F000FFF70CFE002003F067FEA0486030047076
:10270000A2488571C6719D480774A14907988871D0
:102710000698C8710598087204988872039888739F
:102720000298C8779A492031019808709B484088E0
:102730006B46198C40189A4900228A56910009AAC2
:102740005158401880B20890188C19B0F0BD70B57F
:102750005A22322193480AF009FA93488078914925
:10276000C91E8870FFF758FF06460A213046FEF75B
:102770008FFFC5B2002432E08C49085D002103F0D0
:1027800092FC00BF8448806A8021084382498862A5
:102790000F20C001086200BF7F48006B0028FBD0FB
:1027A0000020C0437C49C8620846806A8021884373
:1027B0007949886200BFFFF72FFF06460A2130469D
:1027C000FEF766FF86B277480655AE4205DDF5B2E4
:1027D0007648005D7349C91E8870601CC4B2734896
:1027E000801E4078A042C7DC6E49C91E887800214F
:1027F00003F059FC70BD614A527C02705F4A927CC2
:1028000042705E4A6032527B12025C4B60339B7BAB
:102810001A4311460A05120E8270584A6032D27B62
:102820001202564B60331B7C1A4311460A05120EE6
:10283000C270704710B55E4B18703E2807D07D28D7
:1028400003D0FA2805D15B4903E05B4901E05B490D
:1028500000BF00BF002206E08B5C4C4C40341419D2
:102860002374531CDAB2402AF6DB10BD002810D1C5
:1028700046492031C97E08221143444A2032D1768C
:1028800042494031097810229143404A4032117048
:1028900049E0402816D13D492031C97E08229143A4
:1028A0003A4A2032D1763949403109781022114311
:1028B000364A403211701421344A20321176882170
:1028C000917630E0802816D130492031C97E082227
:1028D00091432E4A2032D1762C494031097810227A
:1028E00011432A4A403211701421284A20321176AD
:1028F0009021917617E0C02815D124492031C97E56
:1029000008229143214A2032D1762049403109786A
:10291000102211431D4A4032117014211B4A2032EB
:1029200011769C21917622490871704713B56B4648
:102930005B78164CA3736B461B78E3730846002242
:1029400004E00378114C2374401C521C6B461B8816
:10295000DB1DDB109342F4DC1CBDF0B504460D46D4
:1029600016461F4639463046FFF7E0FF012014495E
:102970000870204680210843284323E080810140DD
:1029800046CC0000B2020000A8CD0000008001404B
:1029900000000140DB06000000200050FC41001058
:1029A0003C4100105B440010E541001074410010F0
:1029B0000641001076CC0000B6CC0000F6CC00003A
:1029C000FE40001001210843FF49887400BF192010
:1029D000800106E0FD490978012900D003E0411E8D
:1029E00088B20028F6DC00BF00BFF749897CC90720
:1029F000C90FFAD100BF0120F4494870F0BDF0B50D
:102A00000688002E0FD1F04E2036F6783602EE4FB3
:102A100020373F793E4306800688FF271137BE42A4
:102A200001DD3E4606800688F61DF310E64E203690
:102A3000B678002E02D0E44D253501E0E24D263572
:102A40000C46002204E02E782670641C561CB2B29C
:102A50009A42F8DBF0BDFFB583B0044615461E462A
:102A60000C9F00200290FF20D94908703012D649EF
:102A70002031C8700E71D748007808210843D54925
:102A80000870002D36D000BFD34A926A80231A43C3
:102A9000D14B9A62D14A1A6200BFD14A1279911180
:102AA000C94A2032107A527B0192F022C64B203361
:102AB0005A73022D1DD100BFCA4A926880231A435F
:102AC000C84B9A60C84A125C8A40C0235A43C54B1F
:102AD0001A6000BFC34A1269002AFBD00022D24309
:102AE000C04BDA601A46926880239A43BD4B9A60C5
:102AF00000BF00BF00BF1920800106E0B34949783C
:102B0000012900D003E0411E88B20028F6DC00BF96
:102B100000BF00BFB2480079204304990843012157
:102B20000843A9492031C8710121A848C17000BFDC
:102B3000A5482030C079C007C00FF9D1A248203085
:102B40000078A2498870084680781021084210D188
:102B500090209F490870002D00D060E0082C01D023
:102B6000022C03D1002098492031C8710020029026
:102B70005AE096488078C007C00F10D09120944941
:102B80000870002D00D04AE0082C01D0022C03D19F
:102B900000208D492031C8710020029044E08A480D
:102BA0002030807801214840874920318870002FEB
:102BB00017D00846C0780002097908430090791CB4
:102BC0006846FFF71CFF6B461888C01D4005000EC5
:102BD0003870002E05D139788A1E791C5018FFF7FD
:102BE0000AFE002C18D0012078490870487000BFF8
:102BF0001920800106E075490978012900D003E019
:102C0000411E88B20028F6DC00BF00BF6E49897CF7
:102C1000C907C90FFAD100BF0120029004E06E4835
:102C2000006B002800D175E700BF002D0FD066496A
:102C300020310198487300BF0020C0436649C86234
:102C40000846806A802188436349886200BF6148E2
:102C50000078082188435F490870029807B0F0BDEA
:102C600010B5044658482030807801214840564924
:102C700020318870002C0DD00846C07800020979F8
:102C800008432080211D2046FFF7B9FE2088C01D83
:102C9000C010608010BDCA21544A51774A498876D5
:102CA0001021494A517600BF4749497E1022114000
:102CB0001029F9D0704700BF4749896A8022114323
:102CC000454A91620F210902116200BF4249096B16
:102CD0000029FBD00021C9433F4AD1621146896ACD
:102CE000802291433C4A916200BF37498876012196
:102CF000354A517600BF3449497EC907C90F0129B9
:102D0000F9D0FA21394A5177704710B52E4B20334C
:102D1000DB7EFC2423401A46002907D10346FF3BF3
:102D2000413B03D1284C2034E27604E001231343D5
:102D3000254C2034E37610BD70B504460D46284876
:102D400000798611A02C59D004DC282C0AD0502CF4
:102D50007ED121E02046FF3841387ED0FF3841380F
:102D6000F6D1A5E007201849087305200871A220B4
:102D700048710F2088710620C871FA20FFF75AFDAC
:102D800000201149203108720A2070431849085C5C
:102D90000D4920314873A7E007200B49087305202F
:102DA0000871A2204871072088718320C871FA2019
:102DB000FFF740FD01200449203108720A207043CA
:102DC0000B494018407815E000800140FE4000109B
:102DD000D2420010E08101400020005000DC0500DC
:102DE00006410010003000509ECD00002000014040
:102DF00076CD00006B492031487375E0002D0ED16F
:102E000003206849087302200871D120487103200B
:102E10008871C220C8717D20FFF70CFD0DE00720EE
:102E20006049087305200871A22048710A20887142
:102E30000420C871FA20FFF7FDFC02205949203117
:102E400008720A207043584940188078554901E0BB
:102E500048E002E02031487346E0002D0DD101200A
:102E60005049087308716920487101208871E12078
:102E7000C8713E20FFF7DEFC0DE0032049490873CE
:102E800002200871D1204871052088710220C87184
:102E90007D20FFF7CFFC08204249203108720A202C
:102EA000704341494018007A3E49203148731BE085
:102EB00001203C490873087169204871022088711B
:102EC0008120C8713E20FFF7B5FC0920354920312B
:102ED00008720A20704334494018407A3149203141
:102EE000487301E0002070BD00BF304844800120DD
:102EF000F9E72E484088A02806D0FF38413811D085
:102F0000FF3841382AD11BE01920294908730220D3
:102F100027494039C874EE20087500204875FA200A
:102F200088751BE00D202249087301202049403993
:102F3000C87477200875002048757D2088750DE0DD
:102F400006201B490873002019494039C874BC2069
:102F50000875002048753F20887500BF00BF704786
:102F60000246643A91B2642901DA0A4600E064221A
:102F7000002A05DD642901DA0A4602E0642200E045
:102F8000002291B2074BD97570470648C17D643164
:102F900008467047C206D20E01219140054A1160D1
:102FA000704700000080014076CD0000064100100F
:102FB000E081014000E100E010B5FB48C07801026B
:102FC000F94800790818083084B2F84800680028E9
:102FD00004D0F64821460268F348904710BD70B50A
:102FE00004460D46FF212631EF4809F0C6FDBB20FF
:102FF000ED4908700846447085700020C8700121B2
:10300000E94801710020E84948717E21E648817154
:103010000621401CFEF771F8FFF7CEFF70BDFFB52B
:1030200081B004460D460026FF212631DE4809F016
:10303000A4FDBB20DC4908700846447085706B46CF
:10304000587CC870197CD8480171039F00BF05E007
:103050003978D548401D81557F1C761C6B46188AEF
:103060008642F5DB7E21D048401D1A8A8154188A99
:10307000401D81B2CC48401CFEF73FF8FFF79CFF93
:1030800005B0F0BD00B501460B46393309F0ADFD82
:103090000A06100C10101010080A0E10152000BDA2
:1030A0001020FCE71220FAE70920F8E71320F6E7E2
:1030B000C8B2F4E7F8B504460D4616461F46FF2190
:1030C0002631B94809F059FDBB20B74908700846B8
:1030D0004470FF2088700020C8700321B24801713D
:1030E00045718671C7717E2101720821401CFEF76F
:1030F00004F8FFF761FFF8BDF8B506460C46AC488A
:103100000078092800D0F8BD002C0BD060B2FFF782
:10311000B9FF0546A74803782A2229460120FFF770
:10312000C9FF08E01F2000906A462A2102200123DF
:10313000FFF775FF00BFE6E770B506460C4615467B
:103140009B480078092800D070BD23462A462A21D2
:103150000220FFF764FFF7E738B504460D46002C60
:103160000DD093480078012803D12821FFF737FFBD
:1031700004E037210120FFF732FF00BF37E01F20B6
:1031800000908B48007802281AD004DC002807D071
:1031900001282AD10DE0082819D0A02825D11DE04A
:1031A000002D05D12222152101208023FFF782FF67
:1031B0001BE06A46272102200123FFF730FF14E0BD
:1031C0006A46362102200123FFF729FF0DE06A46F7
:1031D000252102200123FFF722FF06E06A463A215B
:1031E00002200123FFF71BFF00BF00BF00BF38BD57
:1031F000F0B5A1B00C4615466D480078002801D006
:10320000022600E001266A488079002801D02327A1
:103210000DE067480078082802D0A02804D101E01A
:10322000252703E0262701E0222700BF00BF6048D2
:103230008079002801D0201D84B25D4800780828DC
:1032400002D0A0281ED106E023462A463946304641
:10325000FFF7E5FE1EE0A0206B46187100205871B4
:1032600098717D2C00D97D242246294601A803307F
:10327000FEF722FAE01C83B201AA39463046FFF776
:10328000CEFE07E0A01E83B22A4639463046FFF73D
:10329000C6FE00BF00BF21B0F0BD10B5FF21263132
:1032A000454809F06AFC10BD30B587B0002442489B
:1032B0004079000640498979090408433E49C979A3
:1032C000090208433C49097A084305903A48807A44
:1032D0006B46187338480B300490187B801D3649B4
:1032E000491D085C1876197BC91D3348401D405C98
:1032F00058760020987601A903A806F0F1F9044653
:10330000002C0BD02046FFF7BDFE05462948037868
:10331000582229460120FFF7CDFE07E06B469D8825
:103320002B4658210120029AFFF779FE07B030BDE5
:1033300030B587B000242048407900061E498979BD
:10334000090408431C49C979090208431A49097A42
:10335000084305901848807A6B46187316480B305E
:103360000490187B801D1449491D085C0202197BDA
:10337000C91D1148401D405C02431A830020987605
:1033800001A903A806F039F90446002C16D02046FE
:10339000FFF778FE054607480378572229460120A3
:1033A000FFF788FE10E00000B5450010DC46001075
:1033B000CA420010D2420010904400105721012050
:1033C0000223029AFFF72BFE07B030BD30B587B05D
:1033D0000024F94840790006F7498979090408432F
:1033E000F549C97909020843F349097A0843059068
:1033F000F148807A6B461873EF480B300490002038
:10340000187601A903A806F095F80446002C0BD005
:103410002046FFF737FE0546E8480378562229463E
:103420000120FFF747FE07E06B469D882B4656219B
:103430000120029AFFF7F3FD07B030BD3EB500242E
:103440000020029002A806F041F80446002C0BD0A0
:103450002046FFF717FE0546D8480378552229462F
:103460000120FFF727FE07E06B461D882B465521FC
:103470000120019AFFF7D3FD3EBD7FB5CE484079CC
:103480000006CD49897909040843CB49C979090265
:103490000843C949097A08430290C748807A6B46B5
:1034A0001870C5480B3001901878801DC249491D1D
:1034B000085C187300205873684605F0A1FF0446A5
:1034C000002C0BD02046FFF7DDFD0546BB480378F6
:1034D000542229460120FFF7EDFD03E0542101208D
:1034E000FFF77DFD7FBD7CB5B34840790006B2494A
:1034F000897909040843B049C97909020843AE49EA
:10350000097A0843009000206B461871684605F060
:1035100022FF0446002C0BD02046FFF7B3FD0546E2
:10352000A6480378532229460120FFF7C3FD03E094
:1035300053210120FFF753FD7CBD7FB59E484079A4
:1035400000069D498979090408439B49C979090204
:1035500008439949097A084302909748807A6B4654
:10356000187095480B30019000201873684605F0DC
:1035700088FE0446002C0BD02046FFF783FD05464D
:103580008E480378522229460120FFF793FD03E07D
:1035900052210120FFF723FD7FBD08B500200090D8
:1035A000684604F05FFA002806D0DD2211460120AB
:1035B000F023FFF77FFD0CE0814840786B465870A0
:1035C0007F48807898706A46DD2101200323FFF749
:1035D00026FD08BD30B589B0684600210A4606C000
:1035E000754840796B4618727348807900067249B5
:1035F000C979090408437049097A090208436E49E8
:10360000497A084303906C48807A18746A48007BB2
:10361000587469480D300590597C08310838405C71
:103620000202597C09316448401D405C02431A8300
:10363000587C0A306049491D40180790012008ABAA
:103640001870694602A805F095FD0446002C0BD0C1
:103650002046FFF717FD0546584803784D222946B6
:103660000120FFF727FD10E06B461888002804D1E1
:103670004D210120FFF7B3FC07E06B461D882B4668
:103680004D210120019AFFF7CAFC09B030BD08B5F1
:103690002F208001C06B00906A46B62101200423D0
:1036A000FFF7BDFC08BD10B5434840790A2806D095
:1036B000B1220E210120E223FFF7FCFC10BD3E48A1
:1036C0008079002802D010281CD10AE0B121012005
:1036D000FFF785FC0A20FDF72BFD72B604F0E6F833
:1036E00010E0B1210120FFF77AFC00203549086283
:1036F0003B2080024860344808604A20C86001F0DE
:1037000070FC00BF00BFD9E710B5A2B02A484079CD
:103710000002294989790843044601AA21A92046C3
:1037200004F0AAF8002807D0D4220E210120A323F8
:10373000FFF7C0FC22B010BD20AB1B7901AAD42139
:103740000120FFF76CFCF5E710B504F0A5F80028A0
:1037500006D0D322FF210120F023FFF7ABFC03E0CA
:10376000D3210120FFF73BFC10BD10B503F000FB97
:10377000002806D0D22211460120A023FFF79AFC90
:1037800003E0D2210120FFF72AFC10BD1CB5002068
:1037900001900090684604F012F8002816D16B469C
:1037A000587818711878587101AAC5210120022390
:1037B000FFF735FC10E0000090440010D2420010EA
:1037C000F6410010000002405A5A5A5AC5220421FC
:1037D0000120F023FFF76EFC1CBD08B5684604F01D
:1037E000E0F86A46B72101200346FFF718FC08BD40
:1037F00010B5FF480079142823D0FD4840790028EF
:103800000CD0FF2815D1012003F08FFE012003F01A
:103810001DFE17210120FFF7E2FB11E0002003F05D
:1038200015FE002003F081FE17210120FFF7D7FBD2
:1038300006E017220E210120E223FFF73BFC00BF28
:1038400005E0172211460120E023FFF733FC10BDED
:1038500030B589B0E64840790006E5498979090420
:103860000843E349C97909020843E149097A084351
:103870000490DF48807A6B461872DD480B30039065
:10388000197AC91D801F405C1875197A0831D8480B
:10389000401D405C5875197A0931D548401D405C7F
:1038A00001021A7A0A32D248401D805C0143D98253
:1038B000187A0B30CE49491D085C1876187A0C30FE
:1038C00040180790002008AB1870694602A805F060
:1038D000D5FB0446002C0BD02046FFF7D3FB054652
:1038E000C4480378832229460120FFF7E3FB10E058
:1038F0006B46187D002804D083210120FFF76FFB61
:1039000007E06B461D882B4683210120019AFFF7B3
:1039100086FB09B030BD30B587B0B54840790006A8
:10392000B349897909040843B149C97909020843AF
:10393000AF49097A08430490AD48807A6B46187203
:10394000AB48C07A5872AA480C300390597AC91D06
:10395000C01F405C1875597A0831A548401D405C6D
:103960005875597A0931A248401D405C9875597ABA
:103970000A319F48401D405CD875597A0B319C48EC
:10398000401D405C187600205876694602A805F074
:1039900004FB0446002C0BD02046FFF773FB0546C2
:1039A00094480378872229460120FFF783FB03E030
:1039B00085210120FFF713FB07B030BD30B589B07A
:1039C0008B4840796B4618738948C079587388488A
:1039D00008300490597BC91CC01E405C1875597B87
:1039E000091D8348401D405C5875597B491D80481E
:1039F000401D405C9875597B891D7D48401D405C89
:103A000000025A7BD21D7A49491D895C08431883FC
:103A1000597B08317648401D08180790002008ABF4
:103A2000187001A903A805F04BFA0446002C0BD02E
:103A30002046FFF727FB05466E4803788622294675
:103A40000120FFF737FB07E06B469D882B4684215A
:103A50000120029AFFF7E3FA09B030BD30B587B014
:103A600001206B46187262484079000660498979E6
:103A7000090408435E49C979090208435C49097A87
:103A8000084304905A48807A587259480B30039082
:103A9000597A891D801F405C1875597AC91D544890
:103AA000401D405C5875597A08315148401D405CB2
:103AB0009875597A09314E48401D405CD875597A3D
:103AC0000A314B48401D405C187600205876694604
:103AD00002A805F062FA0446002C0BD02046FFF73E
:103AE000D1FA054643480378852229460120FFF78D
:103AF000E1FA03E085210120FFF771FA07B030BD3C
:103B000030B589B001206B461873394880795873F5
:103B10003748C01D0490597B891C801E405C187575
:103B2000597BC91C3248401D405C5875597B091DA2
:103B30002F48401D405C9875597B491D2C48401DFD
:103B4000405C0202597B891D2948401D405C0243AC
:103B50001A83597BC91D2648401D0818079000206C
:103B600008AB187001A903A805F0AAF90446002CB7
:103B70000BD02046FFF786FA05461E4803788422BC
:103B800029460120FFF796FA07E06B469D882B46F1
:103B900084210120029AFFF742FA09B030BD30B506
:103BA00085B0134840790006114989790904084312
:103BB0000F49C979090208430D49097A084302905F
:103BC0000B48807A6B46187009480B3001901978C1
:103BD000891D801F405C00041A78D21D0449491DCC
:103BE000895C090208431A7808320149491D03E03B
:103BF00090440010D2420010895C084303900020DA
:103C00001874684605F0E8F80446002C0BD02046EE
:103C1000FFF738FA0546FD4803788222294601203D
:103C2000FFF748FA03E082210120FFF7D8F905B039
:103C300030BD7FB5F64840790006F5498979090419
:103C40000843F349C97909020843F149097A08434D
:103C50000290EF48807A6B461870ED480B30019067
:103C6000002018735873684605F04FF80446002C7E
:103C70000BD02046FFF706FA0546E4480378652294
:103C800029460120FFF716FA03E065210120FFF71E
:103C9000A6F97FBD30B587B0DD4840790006DC4924
:103CA000897909040843DA49C97909020843D849DE
:103CB000097A08430290D648807A6B461870D44837
:103CC0000B3001901978891D801F405C187318789B
:103CD000C01DCF49491D085C020218780830085CF5
:103CE0001018D88118780930085C020218780A3058
:103CF000085C101818820220587618780B3040188B
:103D00000590481F8078462802D0472808D103E054
:103D100004206B46187603E005206B46187600BF3A
:103D200000BF684604F0F7FE0446002C0DD0204684
:103D3000FFF7A8F90546B6488278B44803782946C3
:103D40000120FFF7B7F907B030BDB14880784628A9
:103D500002D047280AD104E046210120FFF73FF9AD
:103D600004E047210120FFF73AF900BF00BFEAE76E
:103D700010B586B0A64840790106A54880790004B0
:103D80000143A348C07900020143A148007A0143DE
:103D900003919F48807A6B4618719D480B300290C2
:103DA0000B38807A801D9A49491D085C1874481F99
:103DB000807AC01D085C01029548827A0832401D55
:103DC000805C014359829248817A0931401D405CF0
:103DD00000028F498A7A0A32491D895C0843988219
:103DE0000520D8750620987501A804F04BFE0446FE
:103DF00020463A3006D03A280BD12A210120FFF77D
:103E0000EEF80DE02A220B210120E523FFF752F9FD
:103E100006E02A220E210120E223FFF74BF900BF22
:103E200000BF06B010BDF0B587B07948807824286F
:103E300003D10125002004900FE005257448407946
:103E4000000673498979090408437149C97909024F
:103E500008436F49097A084304906D48401D405D4E
:103E60006B4618726A49491D681C08180390481F60
:103E70008078242803D10026032018750AE0012643
:103E80006348401D405D4119491C6148401D405C2C
:103E90006B4618755E48401D405D40198119491CEC
:103EA0005B48401D405C00025949491D495D491964
:103EB0008A19921C5649491D895C08436B46D88271
:103EC00053488078242817D15148401D405D40193F
:103ED0008119C91C4E48401D405C02024C48401DDF
:103EE000405D40198119091D4948401D405C02434D
:103EF000521C5010188315E04548401D405D401984
:103F00008119C91C4248401D405C01024048401DC7
:103F1000405D40198219121D3D48401D805C0143DF
:103F20006B46198305206B46D8763948807824285B
:103F300005D0292802D0482809D104E000BF062076
:103F40006B46987603E007206B46987600BF00BF6B
:103F5000694602A804F0DEFC0446002C0DD0204681
:103F6000FFF790F807462A488278284803783946B0
:103F70000120FFF79FF807B0F0BD2548807824287E
:103F80000DD0292802D0482817D111E06B461F8890
:103F90003B4629210120019AFFF741F80DE06B46CD
:103FA0001F883B4624210120019AFFF738F804E0DE
:103FB00048210120FFF713F800BF00BFDBE71CB565
:103FC00000206B461870012058800020187158712D
:103FD0009871684604F030FC044620463A3005D11A
:103FE00000220B210120E523FFF764F81CBD10B56A
:103FF0000749487904F00BFC00280BD035220E212C
:104000000120E223FFF756F808E00000D24200103A
:104010009044001035210120FEF7E1FF10BD08B5E6
:10402000684604F003FC002806D034220E2101204B
:10403000E223FFF73FF805E06A46342101200346FA
:10404000FEF7EDFF08BD10B5F849487904F0D8FB3C
:10405000002806D02F220E210120E223FFF72AF8A4
:1040600014E0F2484079F2494870A520087002F047
:104070007FFE002806D02F22D2210120A023FFF7A7
:1040800019F803E02F210120FEF7A9FF10BD08B5A4
:10409000684604F0A5FB002806D02E220E21012040
:1040A000E223FFF707F805E06A462E2101200346C8
:1040B000FEF7B5FF08BD1CB5DC484079FF2819D1D3
:1040C000DA4880790002D949C97908436B4658809B
:1040D000D648007A1870D548407A1871684604F0BE
:1040E0005BFB002813D033220E210120E223FEF7D0
:1040F000E1FF1CBDCD49487904F0ACFA002806D098
:1041000033220E210120E223FEF7D4FFF1E7332111
:104110000120FEF764FFECE70EB501A804F052FBA6
:1041200001A8C0786B461870987958701879987003
:10413000187AD8706A46322101200423FEF76FFFF7
:104140000EBD1CB5B94840796B461870B748801D44
:104150000190684603F07AFBA520B649087002F08A
:1041600007FE002806D03122D2210120A023FEF72D
:10417000A1FF03E031210120FEF731FF1CBD10B586
:1041800090B001A803F05BFB6B46187918733222DC
:1041900003A801300299FDF78FFA6B461879441C89
:1041A000234603AA30210120FEF739FF10B010BDCD
:1041B00010B5A1480078022806D037220E21012030
:1041C000E223FEF777FF10BD04F071FBFBE71CB59F
:1041D00002206B4618709548807918719348C07911
:1041E00058719248007A01029048407A0818588025
:1041F00001209871684604F01FFB044620463A30BF
:1042000006D03A280BD136210120FEF7E8FE0DE05A
:1042100036220B210120E523FEF74CFF06E0362273
:104220000E210120E223FEF745FF00BF00BF1CBDA9
:104230001CB57E4840796B4618707C48807998712F
:104240007A48C079D8717948007A18717748407AED
:1042500058717648807A01027448C07A08185880EC
:10426000684604F0E9FA044620463A3006D03A2877
:104270000BD13A210120FEF7B2FE0DE026220B21E0
:104280000120E523FEF716FF06E026220E2101207D
:10429000E223FEF70FFF00BF00BF1CBD1CB50820C6
:1042A0006B4618706148807918716048C079587100
:1042B0005E48007A01025D48407A081858806846D6
:1042C00004F0BAFA044620463A3006D03A280BD118
:1042D00025210120FEF783FE0DE025220B21012080
:1042E000E523FEF7E7FE06E025220E210120E2236A
:1042F000FEF7E0FE00BF00BF1CBD1CB502206B46F0
:1043000018704A48807918714848C07958714748F0
:10431000007A01024548407A0818588000209871B8
:10432000684604F089FA044620463A3006D03A2816
:104330000BD136210120FEF752FE0DE036220B2173
:104340000120E523FEF7B6FE06E036220E2101200D
:10435000E223FEF7AFFE00BF00BF1CBD10B504F0A6
:10436000A6FA10BD10B504F0A2FA10BD1CB50120CC
:104370006B4618702D48807901022C48C0790818C6
:1043800058800020187158719871684604F054FAEA
:10439000044620463A3006D03A280BD12721012086
:1043A000FEF71DFE0DE027220B210120E523FEF77D
:1043B00081FE06E027220E210120E223FEF77AFE8D
:1043C00000BF00BF1CBD1CB5684600210A4606C0E0
:1043D00016484079C0116B46187014484079400661
:1043E000800F5870114840790007800FD8700F482F
:1043F00040798007800F18710C488079C01158717E
:104400000A4880794006000F9871684604F091F9D7
:10441000002806D00E2211460120E223FEF74AFEB4
:1044200003E00E210120FEF7DAFD1CBD90440010D0
:10443000F941001072410010CA4200101CB501A8D9
:1044400004F071F901980078C00101994978490197
:10445000401801998978090140180199C9788900A3
:1044600040180199097940186B46187001984079F5
:10447000C00101998979C900401858706A460D2118
:1044800001200223FEF7CBFD1CBD30B58BB02821E7
:1044900001A808F072FBFA48407940116B46187188
:1044A000F7484079C006400F5871F54840798007B9
:1044B000800F9871F248017A01A84171F048407A62
:1044C0001872EF48807A9872002008ABD872EC4DD1
:1044D0000C35002406E0297802A8033001556D1C34
:1044E000601CC4B26B46987AC01DC010A042F2DCBA
:1044F00001A804F00CF90C210120FEF770FD0BB0AF
:1045000030BD30B58BB00AA804F0FCF80A980078EA
:1045100040010A994978890040180A998978401819
:104520006B4618700020587098700A984079D870BF
:104530000A98007918710A98807958710A98203081
:10454000C079C007000E9871DD1D002406E00A98AE
:10455000C01D005D28706D1C601CC4B20A98807973
:10456000C01DC010A042F2DC0A988079C01DC010A6
:10457000C31D6A460B210120FEF751FD0BB030BD73
:104580000EB5BF4840790102BD48807901436B46B2
:104590001980BB48C0790002B949097A084358809C
:1045A000B748407A0002B649897A08439880B448EF
:1045B000C07A000200B2B249097B0843D880B048F3
:1045C000407B1872AE48807B5872AD48C07B9872B1
:1045D000684602F0EAFEA520AA49087002F0C8FB6E
:1045E000002806D01422D2210120A023FEF762FD6C
:1045F00003E014210120FEF7F2FC0EBD00B587B0E8
:1046000001A802F0C9FE6B465879187418795874DD
:1046100001A8C07898749879D87401A84079187561
:10462000187A587501A8C0799875987AD875187B4A
:104630001876587B5876987B987604AA1321012027
:104640000B23FEF7ECFC07B000BD10B58C48407999
:1046500001028B48807901430CB28B490220085E2D
:10466000A04202DA08460224045F87490420085E5B
:10467000A04202DD08460424045F204602F0FCFD4F
:104680008148C480A5208049087002F071FB002891
:1046900006D0B222D2210120A023FEF70BFD03E0B9
:1046A000B2210120FEF79BFC10BD1FB57448407974
:1046B00001027348807901430C466946204603F0A5
:1046C00001F9002806D0B3220E210120E223FEF7D3
:1046D000F1FC05E06A46B32101201023FEF79FFCA0
:1046E0001FBD1CB501A803F087F86B4658791870F8
:1046F000187958706548407898706A46B32101204F
:104700000323FEF78CFC1CBD10B55D4A91795079EE
:1047100002F0EAFD002806D0122211460120F02303
:10472000FEF7C8FC11E0A5205949087002F020FBF3
:10473000002806D01222D2210120A023FEF7BAFCC5
:1047400003E012210120FEF74AFC10BD08B500A9C4
:104750000131684603F087F86A46112101200223DF
:10476000FEF75DFC08BD10B54549487902F0CCFD67
:10477000002806D007220E210120E223FEF79AFC32
:1047800010BDA5204249087002F0F2FA002806D0B8
:104790000722D2210120A023FEF78CFC03E0072191
:1047A0000120FEF71CFCEBE708B5684603F055F85E
:1047B0006A46062101200346FEF731FC08BD10B50C
:1047C000002002F0B2FE08210120FEF708FC0A20BA
:1047D000FCF7AEFC00F005FC10BD10B58AB028480F
:1047E000407904282CD008DC00280DD0012812D0F4
:1047F000022817D0032873D11BE0A02829D0B028A5
:104800006FD0B128F7D1ACE1224A032101200A235D
:10481000FEF705FCECE1204A032101200A23FEF704
:10482000FEFBE5E11DA2032101200923FEF7F7FBB2
:10483000DEE11DA2032101200823FEF7F0FBD7E1F2
:104840000220099009AA032101200346FEF7E7FB95
:10485000CEE117A0C0796B46187615A0007A58767D
:1048600013A0407A987612A0807AD87610A080782B
:104870006E2825D10EA0407861281FD100205EE06F
:10488000904400105E41001056410010A6410010F7
:10489000E5410010DB410010EA4100105048594347
:1048A00048495053000000003834302D393630006C
:1048B00041707220203620323031350005203EE034
:1048C000FE488078622801D1012038E0FB488078DA
:1048D000722809D1F94800784D2803D102202EE032
:1048E0007FE1F4E003202AE0F4488078792801D1C0
:1048F000042024E0F14880786E2801D105201EE0D4
:10490000EE4880786C2801D1062018E0EB488078CA
:10491000672801D1072012E0E8488078702801D18B
:1049200008200CE0E5488078742801D1092006E0D1
:10493000E2488078762801D10A2000E00B2009287F
:104940004FDA30206B461877DC4880786E2807D124
:10495000DA484078612801D100203EE005203CE0A3
:10496000D6488078622801D1012036E0D34880788B
:10497000722807D1D14800784D2801D102202CE0BF
:1049800003202AE0CD488078792801D1042024E052
:10499000CA4880786E2801D105201EE0C74880787B
:1049A0006C2801D1062018E0C4488078672801D11E
:1049B000072012E0C1488078702801D108200CE05F
:1049C000BE488078742801D1092006E0BB48807871
:1049D000762801D10A2000E00B2031306B46587751
:1049E0004EE031206B461877B44880786E2807D1A6
:1049F000B2484078612801D100203EE005203CE02B
:104A0000AE488078622801D1012036E0AB4880783A
:104A1000722807D1A94800784D2801D102202CE046
:104A200003202AE0A5488078792801D1042024E0D9
:104A3000A24880786E2801D105201EE09F4880782A
:104A40006C2801D1062018E09C488078672801D1A5
:104A5000072012E099488078702801D108200CE0E6
:104A600096488078742801D1092006E09348807820
:104A7000762801D10A2000E00B2027306B465877BA
:104A80008E480079202801D1302001E08B48007940
:104A90006B46987789484079D87789A0007808AB29
:104AA000187087A04078587085A0C078987084A04E
:104AB0000079D87082A08079187181A0C07958716E
:104AC00006AA032101200E23FEF7A9FA90E0142183
:104AD00005A808F052F8B0206B4618757B4840785E
:104AE00058750020987501A802F056FC6B4658795D
:104AF000D8751879187601A8C0785876987998767C
:104B000001A84079D876187A187701A8C079587723
:104B1000987A9877187BD877587B08AB18706B46D3
:104B2000987B08AB587004A802F066FE6B46587C70
:104B300008AB98706B46187C08ABD8706448407915
:104B400018716348007958716148C078987160485D
:104B50008078D87105AA032101201423FEF75FFA9B
:104B600046E0202102A808F008F8B1206B46187230
:104B700058484078587202A8023002F073FF564835
:104B800040786B46D872544880781873002406E049
:104B90005248015D601D02AA1154601CC4B20A2C67
:104BA000F6DB002407E04E48015D20460F3002AAE4
:104BB0001154601CC4B20A2CF5DB4A48C07808AB1B
:104BC000587048488078987046484078D870454872
:104BD0000078187102AA032101201D23FEF71FFA95
:104BE00006E003220E210120E223FEF763FA00BF54
:104BF00000BF0AB010BD10B53B484079032806DD60
:104C0000012211461046F023FEF754FA10BD01218F
:104C10000846FEF7E4F90A20FCF78AFA32484079A0
:104C2000002802D002F094FD01E002F0ABFDEDE7B8
:104C300010B52D480079C01D81B22B48401CFCF7EF
:104C400044FA002806D00022FF2101209023FEF71D
:104C500031FA10BD24488378372B73D01EDC07F05F
:104C6000C4FF379483948694948C95899494B6BEAB
:104C7000C1C49494989BB0B39EACEB9494949494D8
:104C80009494949494EA94E9ED94C7CEE7E69494CE
:104C900094E5E4F9FCFFE0DFDED49400822B6FD0D2
:104CA0003CDC522B6DD028DC462B6BD01EDC382B25
:104CB00069D0392B68D03A2B67D1C2E0B0480000E8
:104CC00030393A35393A313900000000F4410010EA
:104CD00056410010E5410010F6410010DB41001084
:104CE000EA4100100017000090440010472B71D0DB
:104CF000482B70D04D2BDFD100E1562B6CD006DC59
:104D0000532B6AD0542B69D0552BD5D105E1572BA5
:104D100071D0582B70D0652BCED1C2E0B32B3FD0D1
:104D200011DC862B69D006DC832B67D0842B6FD0F7
:104D3000852BC1D1BEE0872B6BD0B12B6AD0B22BB3
:104D4000BAD13BE05EE0D22B65D006DCB62B63D057
:104D5000B72B62D0C52BAFD1BEE0D32B5ED0D42B06
:104D60006BD0DD2BA8D1CCE0FFF745FFFBE0FFF7D0
:104D700034FDF8E0FFF723FDF5E0FFF715FDF2E065
:104D800092E0C1E089E05FE061E0D2E0FFF7EBFC98
:104D9000E9E0FFF7DBFCE6E0FFF7B6FCE3E000BF8D
:104DA0009348C078010292480079014302D1FFF78D
:104DB00098FC01E0FFF779FCD5E000BFFFF745FC68
:104DC000D1E0FFF71BFCCEE0FFF7DAFBCBE0FFF70B
:104DD00098FBC8E062E059E0A2E098E09AE0FFF7B3
:104DE00054FBC0E0FFF72AFBBDE0FFF7ECFABAE0A6
:104DF000FFF7BCFAB7E096E098E05EE063E0FFF70B
:104E0000B1FAB0E0FFF7AAFAADE0FFF776FAAAE050
:104E10004DE055E06CE062E06DE05AE062E02EE0CB
:104E20002AE020E01CE018E014E022E01EE031E07F
:104E30002BE003E02BE025E048E056E0FFF72EFAF8
:104E400091E0FFF7F5F98EE0FFF7C1F98BE0FFF78E
:104E5000AFF988E0FFF793F985E0FFF772F982E098
:104E6000FFF75AF97FE0FFF726F97CE0FFF70FF92B
:104E700079E0FFF7E8F876E0FFF7D1F873E0FFF7A5
:104E8000B6F870E0FFF79BF86DE000BF00BFFEF7DB
:104E9000CAFF68E0FEF76CFF65E000BFFEF7FAFEB0
:104EA00061E0FEF7C6FE5EE0FEF779FE5BE0FEF72E
:104EB00027FE58E0FEF7D2FD55E0FEF77FFD52E0F9
:104EC000FEF729FD4FE0FEF7C3FC4CE0FEF790FC37
:104ED00049E0FEF782FC46E0FEF758FC43E0FEF7AF
:104EE00044FC40E0FEF730FC3DE0FEF70DFC3AE00C
:104EF000FEF7D9FB37E0FEF7CAFB34E0FEF76AFBAA
:104F000031E0FEF74AFB2EE0FEF717FB2BE0FEF741
:104F1000EAFA28E0FEF7B1FA25E0FEF78FFA22E080
:104F2000FEF754FA1FE0FEF703FA1CE0FEF7BCF9A7
:104F300019E03048007800280DD0002406E0A000D9
:104F40002D4A11582A488847601CC4B22948007865
:104F50008442F4DB06E02648827818210120E12310
:104F6000FEF7A8F800BF00BFFEF797F971E67CB521
:104F700004460D462A4621461D48FCF79DFB1F4866
:104F8000009001206B46187101990098FBF783FF90
:104F90007CBD10B51A481B4948600846FCF7A4FAC6
:104FA000184988688047184803F08CFB174803F0BD
:104FB00099FB1748174988621748C86208210120E1
:104FC000FEF70DF810BD0B490978022908DA0949E6
:104FD0000A780978491C074B19709100064A50500D
:104FE00070470E480E49C860BFF3408F00BFFEE710
:104FF000904400100C41001010410010314C000092
:105000006F4F0000DC460010F13100005931000004
:10501000393100008C640010F93000000400FA05FA
:1050200000ED00E06C484068C007C00F01D00020D0
:1050300070470120FCE76948006A06210843674978
:105040000862002064490860E9200860704700B5E4
:1050500001460020604A506010464068102210430C
:105060005D4A50601046C1604068E02210435A4AD1
:10507000506000BF5848006810221042FAD0FFF775
:10508000D1FF00BD00B5014653480068802210439F
:10509000514A1060002050601046406810221043B2
:1050A0004D4A50601046C1604068A02210434A4AF1
:1050B000506000BF4848006810221042FAD0FFF745
:1050C000B1FF00BD00B5014643480068802210438F
:1050D000414A106010464068C02290433E4A5060EA
:1050E00010464068102210433B4A50601046C16091
:1050F0004068A0221043384A5060104600681022D1
:10510000104204D0344800689043334A106032485B
:10511000006810229043304A1060FFF783FF00BD03
:105120002D4800681022104201D1002070472A4803
:105130004068C022104001461020014326484160CB
:10514000006810229043244A106000BF2248406843
:1051500020221042FAD10120E8E701461E480068EB
:105160001022104201D1002070471B484068C02225
:105170001040C02801D00020F6E71748C160006841
:1051800010229043144A106000BF13480068102298
:105190001042FAD00120E7E70F48006810210842CA
:1051A00001D1002070470C484068C0210840802889
:1051B00001D00020F6E7084800681021884306491E
:1051C000086000BF0448006810210842FAD0024875
:1051D000C068C0B2E6E7000000A0005000540050D4
:1051E00010B58200F74B9A5801239B02D218D2695E
:1051F00001238B401A438300F24CE3580124A4029C
:105200001B19DA6110BD10B5EF480068002802D004
:10521000ED480068804702210020FFF7E1FF10BD44
:1052200010B5EA480068002802D0E84800688047C6
:1052300006210120FFF7D4FF10BD704730B5002ACA
:1052400011D08300DF4CE3580124A4021B191C6811
:1052500001238B401C438300DA4DEB580125AD023E
:105260005B191C6010E08300D64CE3580124A402B3
:105270001B191C6801238B409C438300D14DEB58C4
:105280000125AD025B191C6030BD70474178890073
:10529000CC4A51580F2292018918CA6B8378012198
:1052A00099400A4341788900C64B59580F239B0106
:1052B000C918CA63704741788900C24A51580F2201
:1052C00092018918C96B837801229A4091434278F0
:1052D0009200BC4B9A580F239B01D218D1637047A0
:1052E00041788900B74A51580F2292018918CA6B38
:1052F0008378012199404A4041788900B14B59583F
:105300000F239B01C918CA63704701464878800083
:10531000AC4A10580F2292018018C26B8B78012082
:105320009840024201D0012000E00020C0B2704746
:1053300030B55300D318A64CE35C002B11D083008A
:10534000A04CE3580124A4021B195C6801238B4084
:105350001C4383009B4DEB580125AD025B195C603B
:1053600039E08300974CE3580124A4021B195B68C1
:1053700001248C40A3438400924D2C590125AD0299
:10538000641963605300D318914C1B195B78002B90
:1053900010D083008B4CE3582C461B199C680123CA
:1053A0008B401C438300874DEB580125AD025B19F0
:1053B0009C6010E08300834CE3580124A4021B1975
:1053C0009C6801238B409C4383007E4DEB58012554
:1053D000AD025B199C605300D3187D4C1B199B7860
:1053E000002B11D08300774CE3580124A4021B1931
:1053F000DB6801248C4023438400724D2C59012525
:10540000AD026419E36010E083006E4CE3580124A0
:10541000A4021B19DB6801248C40A3438400694D5E
:105420002C590125AD026419E36030BD10B5044666
:105430006078800063490858012189024018016999
:10544000A278012090400143607880005D4A1058A6
:1054500001229202801801616078002806D1A078AC
:10546000032803D10D2000F0C3F812E06078012872
:1054700006D1A078002803D10E2000F0B9F808E08A
:105480006078012805D1A078072802D1112000F00A
:10549000AFF810BD10B5044660788000494908583F
:1054A0000121890240180169A278012090408143BE
:1054B00060788000434A10580122920280180161EE
:1054C0006078002806D1A078032803D10D2000F0D1
:1054D00096F812E06078012806D1A078002803D160
:1054E0000E2000F08CF808E06078012805D1A07843
:1054F000072802D1112000F082F810BD10B5044633
:10550000237807F072FB110A5D5D5D250F105D0BBE
:105510000C0E260D5D11272F5D0051E000BF00BF6E
:1055200000BF00BF00BF00BFA17860780122FFF775
:1055300085FEE078002804D1264860602648A060F7
:1055400003E0254860602348A0602448E06037E01D
:1055500000BF00BFA17860780022FFF76FFE2048EF
:1055600060602DE0A17860780022FFF767FE227965
:10557000A1786078FFF7DCFE1948A0601948E06068
:10558000194820616078002806D1A078022803D14C
:105590000D496069086012E06078012806D1A078A2
:1055A000002803D111496069086008E0607801288B
:1055B00005D1A078072802D104496069086000BFBE
:1055C00000BF10BDF8CD0000304100103841001080
:1055D000E8CD00008D520000B7520000E1520000FB
:1055E0000B5300002D54000095540000344100106E
:1055F000C206D20E01219140054A11607047C206D1
:10560000D20E01219140024A8032116070470000A1
:1056100000E100E030B5FF4C2479F0252C40234612
:105620001C460443FB4D2C7114010C432C7230BDFD
:1056300000BFF949896A80221143F74A91620F211C
:105640008901116200BFF449096B0029FBD00021D8
:10565000C943F14AD1621146896A80229143EE4AD8
:10566000916200BFEB492031C874EA492039897D35
:1056700002229143E74A203A917500BFE649896AC0
:1056800080221143E44A91620F21C901116200BFD7
:10569000E149096B0029FBD00021C943DE4AD162F0
:1056A0001146896A80229143DB4A916200BFD94941
:1056B0002039897D02221143D64A203A91757047DC
:1056C000F0B5A7B00020269020211EA807F055FABB
:1056D000202116A807F051FA2022D0490EA8FBF786
:1056E000EBFF2022CD49203106A8FBF7E5FF002083
:1056F000059000270120039000BFC748806A8021E1
:105700000843C549886203200002086200BFC248FE
:10571000006B0028FBD00020C043BF49C862084688
:10572000806A80218843BC49886200BF002404E06D
:10573000FF20BB490855601C44B20F2CF8DBC02089
:10574000B44920310875B3482038007E08218843C9
:10575000B0492039087600BFAF48806A80210843ED
:10576000AD49886203200002086200BFAA48006BAE
:105770000028FBD00020C043A749C8620846806AC1
:1057800080218843A449886200BF0020049000243F
:10579000E6E02698052800DDE5E0E0B2FFF748FFE7
:1057A0000025D7E00F2C02D1002D00DDD5E0A800A8
:1057B000984920314018407D611949001EAA891876
:1057C0004870A800934920314018807D6119490034
:1057D0005054A8008F4920314018C07D61194900FC
:1057E00016AA89184870A8008A4920314018007EFE
:1057F000611949005054601940001EA9085A093027
:10580000611949001EAA50526019400016A9085A91
:10581000C01D6119490016AA5052601940001EA906
:10582000085AC004000C611949001EAA50526019A0
:10583000400016A9085AC004000C6119490016AAB4
:1058400050526019400016A9085A0599884201DD96
:105850006019C7B26019400016A9085A059060196E
:105860004000085A6F49884206DB601940001EA9B3
:10587000085A6C49884256DA66482038807D0121F2
:105880000843644920398875084600788021884398
:1058900060492039087000BF5F48806A8021084352
:1058A0005D4988620F20C001086200BF5A48006B42
:1058B0000028FBD00020C0435749C8620846806AD0
:1058C000802188435449886200BF524820380078BC
:1058D000802108434F49203908700846807D4008E0
:1058E0004000887500BF4C48806A802108434A49BF
:1058F00088620F20C001086200BF4748006B002883
:10590000FBD00020C0434449C8620846806A802119
:1059100088434149886200BFE01E44B22698401C7B
:10592000C0B2269019E06019400016A9085A611902
:1059300049001EAA515A401A962809DA60194000F7
:105940001EA9085AFF302D306119490016AA50527D
:10595000681CC5B2032D00DA24E700BFE01C44B286
:105960000F2C00DA15E700BF2A482038007E0821F6
:105970000843284920390876002472E0FF260020D9
:105980000490002513E068001EA9085A61000EAAC1
:10599000515A884209DA680016A9085A610006AA15
:1059A000515A884201DD2E4603E0681CC5B2BD4253
:1059B000E9DD00BF354617E068001EA9085A6100FE
:1059C0000EAA515A88420DDA680016A9085A6100D9
:1059D00006AA515A884205DD0498401CC0B20490C2
:1059E00001200390681CC5B2BD42E5DDFF2E34D016
:1059F000BE4232DA049801282FDD600006A9085A59
:105A000061000EAA515A401840100290700016A969
:105A1000085A09E0200001400020005018CE000084
:105A200000490010581B000071001EAA515A40186E
:105A300041100191701C400016A9095A701C4000C9
:105A4000105A081841100091009902980A1A0199F9
:105A5000401A824201DA701CC6B2F9480655601C31
:105A600044B20F2C8ADB039827B0F0BD10B5F5497E
:105A700048688047F448407840084000F249487040
:105A80000120FDF708F90120FDF715F9EE484078EF
:105A900001210843EC494870FFF712FEEA4820381C
:105AA000807D01210843E84920398875084600783F
:105AB00080218843E44920390870E24800780128B1
:105AC00005D1E248006804210843E0490860DD4848
:105AD0000078012807D1DD484038C06B0421884395
:105AE000DA494039C863DA4BDA7899785878FFF7A1
:105AF00091FD10BD0720D44920390870DF2048707F
:105B0000CD208870DF20C870CD200871C620487174
:105B1000A3208871C871FF20087248723F208872E4
:105B20004720C87240200873AA204873BF2088739A
:105B30000F20C873F02008747F204874DD2088741B
:105B4000C874D8200875F3208875F720C875F82028
:105B50000876F02048760B208876E120C8768320EE
:105B6000087719204877E4208877FF20C877B6495E
:105B700008709C204870002088700A20C870BB20E4
:105B800008719020487127208871F820C871DB20A7
:105B90000872FF20C871AF200872FF208872DD20D4
:105BA000C872DC200873DD2048738873C8730874DA
:105BB00048748874C8740875D8204875DD208875C5
:105BC000C875D9200876DD2048768876C8760877AB
:105BD00048778D208877FD20C877DD209A492031CD
:105BE0000870CF2048707F20C870FF2008714F20B8
:105BF0004871FF208871C871704707209249203989
:105C00000870DE20487004208870DE20C8700420F0
:105C10000871C620487194208871C871AA20087242
:105C2000FF2048723F2088724720C87240200873C6
:105C3000AA2048731D2088730020C873F0200874C0
:105C40007F204874DD208874DE20C874D820087551
:105C5000FF204875EA2088750A20C875F820087664
:105C6000002048760C2088760020C87683200877AC
:105C700089204877E42088770A20C877724908701D
:105C80009C204870002088701920C870B3200871CB
:105C90009020487127208871FF20C87186200872E3
:105CA000FF2048728872DD20C872DC200873DD2076
:105CB00048738873C873087448748874C874AC20B7
:105CC0000875DF204875DD208875C875DF200876E7
:105CD000DD2048768876C8769D200877FA204877B8
